:020000040800F2
:100000000009002035020008554E00086D4D00081B
:10001000514E0008B13A0008D15500080000000018
:10002000000000000000000000000000A54E0008D5
:10003000B53A000800000000594E00083954000885
:100040004F0200084F0200084F0200084F0200084C
:100050004F0200084F0200084F0200084F0200083C
:100060004F0200084F0200084F0200084F0200082C
:100070004F0200084F0200084F0200084F0200081C
:100080004F0200084F0200084F0200084F0200080C
:100090004F0200084F0200084F0200084F020008FC
:1000A0004F0200084F0200084F0200084F020008EC
:1000B0004F0200084F0200084F0200084F020008DC
:1000C0004F0200084F0200084F0200084F020008CC
:1000D0004F020008C55500084F0200084F020008F3
:1000E0004F0200084F0200084F02000800F002F81B
:1000F00000F090F80AA090E8000C82448344AAF132
:100100000107DA4501D100F085F8AFF2090EBAE82F
:100110000F0013F0010F18BFFB1A43F0010318473B
:10012000A0610000C0610000103A24BF78C878C107
:10013000FAD8520724BF30C830C144BF04680C60ED
:10014000704700000023002400250026103A28BF35
:1001500078C1FBD8520728BF30C148BF0B60704739
:100160006E2900F0EF81702900F03983662905F0CF
:100170005186652905F04E86672905F04B86612971
:1001800005F04A8603681B0A28BF41F080016929EF
:1001900000F09C81642900F09981752900F0968116
:1001A0006F2900F0C782782900F00583E92900F063
:1001B0006182E42900F05E82F52900F05B82EF297C
:1001C00000F0C482F82900F004830368DB0928BF2B
:1001D00041F08001632901F0A780732901F0AC8010
:1001E000E32901F0B780F32901F0BC8000207047BB
:1001F0001FB500F061FC04000020002105F0DEFDC9
:10020000401C60600020002105F0EEFDE0601FBD95
:1002100010B510BD01F0FAF81146FFF7E9FF05F03F
:10022000D9F901F0CBF903B4FFF7F2FF03BC01F0F9
:10023000CFF900000948804709480047FEE7FEE77C
:10024000FEE7FEE7FEE7FEE7FEE7FEE7FEE7FEE786
:1002500004480549054A064B70470000B954000898
:10026000ED00000800030020000900200005002028
:10027000000500207CB51D4616460C00009001D0FC
:100280002044401E074B7B442A4669460190304675
:1002900000F071F905461CB10020694600F07EF9B6
:1002A00028467CBD1D0300002DE9F04791460F460E
:1002B00080460446002614F8015B2DB100F098F842
:1002C0000068405DC007F6D12B2D02D02D2D18D02F
:1002D000641E4A463946204600F050FB27B1396873
:1002E000A14201D1C7F800804FF0020471050BD57F
:1002F0004042002803DD00F083F80460A007BDE859
:10030000F08746F48066E4E70028F8DA00F078F831
:1003100004606FF00040F2E7014A00F07FBB00008C
:10032000000000204FF000020429C0F0128010F0FD
:10033000030C00F09783CCF1040CBCF1020F18BF42
:1003400000F8012BA8BF20F8022BA1EB0C0100F054
:1003500089BB5FEAC17C24BF00F8012B00F8012BA8
:1003600048BF00F8012B70474FF0013C50F8042BB8
:1003700051F8043B9A4221D1A2EB0C03934313EAB8
:10038000CC1317D150F8042B51F8043B9A4215D1E5
:10039000A2EB0C03934313EACC130BD150F8042BBC
:1003A00051F8043B9A4209D1A2EB0C03934313EAA0
:1003B000CC13DBD04FF00000704700BFD01A01BA59
:1003C000B1FA81F101F0180122FA01F0CB40DBB261
:1003D000C0B2C01AC1F120012CFA01F3D11A914325
:1003E00011EAC311E6D170477047704770470000AB
:1003F00010B500F061FB001D10BD00BFC159000029
:10040000004870471000002070B5044685690068F8
:10041000C10601D5302600E02026C00707D070BDF8
:10042000D4E9012130469047206A401C20626D1EAD
:10043000F6D570BD70B5044685690078C00707D150
:1004400070BDD4E9012120209047206A401C206221
:100450006D1EF6D570BD09684A0501D540B27047DA
:10046000C905FCD500B2704709684A0501D5C0B27C
:100470007047C905FCD580B2704770B50C4605467B
:10048000012A05D02878800600D5EA69002302E019
:10049000012305E05B1C934202D2E05C0028F9D105
:1004A000A869E618C01AA861286A18442862284674
:1004B000FFF7AAFF04E0D5E9012114F8010B9047EA
:1004C000B442F8D32846FFF7B5FF70BD2DE9F041DF
:1004D0000646002410687529314616A510D0FFF78E
:1004E000BAFF002802DA404213A507E031688A0704
:1004F00001D512A502E0490704D511A5012401E0A8
:10050000FFF7B2FF00210A2206F1240709E0B0FB41
:10051000F2FCB0FBF2F302FB1C00303078541846BA
:10052000491C0028F3D123462A463046BDE8F04155
:1005300000F00BBB000000002D0000002B000000AD
:100540002000000011680268006A530501D5087098
:100550000AE0D30501D5088006E0130603D5C217CB
:10056000C1E9000200E008600120704701694A1CEF
:1005700002610878704700B58FB0CDE901310021E4
:10058000059105497944CDE903101146684600F00C
:1005900031F90FB000BD0000E5FFFFFF0A6802F867
:1005A000010B0A607047D1E900239A4202D2531C22
:1005B0000B601070704700002DE9FF5F15468A46FA
:1005C0000446DFF8AC80F8440027D8E900103E4626
:1005D000CDE9001010E03AF816106A4602A800F0C3
:1005E000D3FE411C07D02178890603D5E26939186A
:1005F00091420DD80744761C2078800602D5E06928
:10060000B84205DDAE42E6DB3AF816000028E2D13A
:10061000A069C01BA0612046FFF7F6FED8E90010D4
:10062000CDE90010002017E03AF818106A4602A839
:1006300000F0AAFEB0F1FF3F81460BD000250DF17E
:10064000080B05E0D4E901211BF8050090476D1C5B
:100650004D45F7D308F10100B0428046E4DB206A43
:10066000384420622046FFF7E5FEBDE8FF9F00000A
:10067000525800002DE9F0418046D21D22F00702B9
:100680000025D2E90002F52915A614D0011E72F149
:10069000000106DA0023D0EB030063EB020211A68F
:1006A00008E0D8F800108B0701D50FA602E0490733
:1006B00001D50EA601251146002408F1240704E007
:1006C00000F0FEF930323A55641C50EA0102F7D1CD
:1006D0002B46324621464046BDE8F04100F035BA8F
:1006E000000000002D0000002B0000002000000092
:1006F00030B4002100F1240408E002F00705D2081C
:10070000303542EA4372DB086554491C52EA03055E
:10071000F3D10468002310A2250708D504F02004B3
:100720000C4304D0C46901230CA2641EC46130BC14
:1007300000F00BBA10B5044621461068FFF794FE8E
:1007400002462046BDE810400023D1E7D21D22F02A
:100750000701D1E90023CBE70000000030000000D2
:10076000F0B40D460188090502D5214C7C4402E015
:100770001F4C7C440E34002100F1240608E002F0F6
:100780000F071209E75D42EA03721B097754491CFF
:1007900052EA0307F3D102780023120704D5702D23
:1007A00006D009B1022311342246F0BC00F0CDB9C5
:1007B00001231034F8E770B504460D462146106851
:1007C000FFF752FE024629462046BDE8704000234E
:1007D000C6E7D21D22F00703D3E90023C0E7036870
:1007E000126843F0200303600823C3610023B7E7C6
:1007F000B45600002DE9F05F894604464FF0000A28
:10080000DFF874B1FB44C0F820A02046E1688847B7
:10081000002874D0252806D0D4E901219047206A09
:10082000401C2062F1E700265F462046E1688847C9
:100830002028054607DB312D05D2781910F8200C49
:1008400008B10643F1E7B00701D526F00406C4F865
:100850001CA00027C4F818A02A2D09D0284605F0AE
:10086000A6FA38B304EB8708303DC8F8185019E0F1
:1008700059F8041B204604EB87029161E168884720
:10088000012F054618D1E069002820DA26F020065D
:100890001DE0D8F8180000EB800005EB4000303870
:1008A000C8F818002046E1688847054605F07FFA39
:1008B0000028EED1012F0AD02E2D08D12046E16864
:1008C00088477F1C0546022F46F02006C4DBA0693E
:1008D000002803DA404246F00106A061F00701D08B
:1008E00026F010066C2D0BD0682D09D04C2D39D078
:1008F0006A2D35D0742D35D07A2D33D016E038E0FE
:10090000E1682F4620468847B842054609D16C2F3A
:1009100026D04FF48060E1680643204688470546AC
:1009200004E06C2F1AD04FF4807006430DB3A5F18C
:100930004100192802D8203546F400664A46294667
:10094000204626604E46FFF70BFC80B101280BD0F5
:10095000F61D26F0070000F1080956E74020E4E7FD
:100960008020D8E70020D6E706F104094DE72846A5
:1009700052E7206ABDE8F09F445600002DE9F05F81
:10098000824615468B4600270AF10104B9460078D5
:10099000302801D09DB113E014F8010B012778280D
:1009A00003D0582801D045B10AE00DB1102D07D170
:1009B000002714F8010B102502E0082500E00A25A5
:1009C0000026B0460EE005FB080005FB06F10127F6
:1009D0001FFA80F801EB1046B6F5803F00D3B94608
:1009E00014F8010B294600F0C1FC0028EBDABBF13A
:1009F000000F05D00FB1641E00E05446CBF8004054
:100A0000B9F1000F06D0FFF7FBFC02210160C81E00
:100A1000BDE8F09F48EA0640FAE700002DE9F04102
:100A200015460E46040002D12C6804B90BA42046DA
:100A300000F0DEFC0444207870B127463146384689
:100A400000F0C6FC0444207810B1002004F8010B2B
:100A500038462C60BDE8F0810027F9E7000000006F
:100A60004FF0000200B5134694469646203922BF47
:100A7000A0E80C50A0E80C50B1F12001BFF4F7AF92
:100A8000090728BFA0E80C5048BF0CC05DF804EB74
:100A9000890028BF40F8042B08BF704748BF20F8E2
:100AA000022B11F0804F18BF00F8012B7047000097
:100AB00000487047100000200048704730000020B8
:100AC00030B5B0F10A0271F100034FEA900E4EEA20
:100AD000817EB0EB0E0061EB91014FEA101E4EEAF1
:100AE000017E10EB0E0041EB11114FEA102E4EEA81
:100AF000016E10EB0E0041EB11214FEA104E4EEA51
:100B0000014E10EB0E0041EB1141401841F1000184
:100B10004FEAD00040EA41704FEAD1014FEA810428
:100B200044EA907410EB800544EB01046D1944EB2A
:100B30000404521BA3414FF0000348BF0A3200D502
:100B400030BD401C41F1000130BD2DE9F0470D469C
:100B500099469246044600F124080168880604D5A7
:100B6000E06921F01001216000E00120A84201DDD0
:100B7000471B00E00027A1697A1902EB0900081A57
:100B8000A0612078C00602D42046FFF73DFC002675
:100B900008E0D4E901211AF806009047206A401CB9
:100BA000761C20624E45F4DB2078C0060AD520462C
:100BB000FFF72AFC06E0D4E9012130209047206AA3
:100BC000401C2062381EA7F10107F4DC07E0D4E9DD
:100BD000012118F805009047206A401C2062281E59
:100BE000A5F10105F3DC2046FFF724FC2078000680
:100BF00002D50220BDE8F0870120FBE72DE9FF4F79
:100C00000C461E464FF0FF378BB0D2E90001DDF8ED
:100C100060800A908A46C1F30A5505B93D46002115
:100C200008464FF00000BAF1000F00F4400005DA6A
:100C300000EB80004FF4400101EA50004FEA905968
:100C4000B9F1010F00DDB9460A9850EA4A000ED00A
:100C500044F61050A5F2FF3545432F14B8F1000FAC
:100C60001ED07542291E1EDDC9F100021CE0B8F13C
:100C7000010F4FF0000001D0302103E0F24305E006
:100C80002154401CB042FBDB30460022002121549D
:100C90000B99C1F80880C1E900200FB0BDE8F08FC2
:100CA000BD1B6D1CDEE74A4600DA694206A800F06B
:100CB00013FC06AB93E8070003AB83E8070050463C
:100CC0000A9904F098FC8DE80700A0F500501F3841
:100CD00000900398002D0ADD42F21F014A460844A5
:100CE000002303A90390684604F001FF09E0A0F582
:100CF00000504A461F38002303A90390684604F0B9
:100D00000BFF8DE807000004000C03D04FF0FF300C
:100D1000410800E01046B8F1000F03D00022009215
:100D200015461EE0751E05D4FFF7CAFE3032625527
:100D30006D1EF9D5B3460122084302D000227F1C64
:100D400004E02078302801D100227F1E002A099774
:100D500084D01DE0112D07DAFFF7B2FE3032625564
:100D60006D1C50EA0102F5D1084302D00098C8B1C9
:100D70000EE00021681E05E0235C625C635422548F
:100D8000401E491C8142F7DBAB46A81B401E099060
:100D9000002004F80B000B98099AC0F80880C0E9FD
:100DA000002B7AE711264FF0000857E72DE9F04FA6
:100DB00088460446D21D22F0070191B0D1E9000116
:100DC000CDE90A0104F0DFFF02460B98C00F01D005
:100DD0002D2007E02068810701D52B2002E020218B
:100DE00001EAC000032A099001D0072A05DB034667
:100DF0004146204600F030FB0BE12078800601D50B
:100E0000E06900E00620B8F1650F814606D0B8F130
:100E1000660F18D0B8F1670F70D131E00020B9F13A
:100E2000110F009001DB112301E009F101030AAA6F
:100E300001A90CA8FFF7E2FEDDE90C70002609F11C
:100E40000105834647E001204B4600904FF00047E4
:100E50000AAA01A90CA8FFF7D1FEDDE90DB00C9993
:100E60005D46002610B909F101000D18B9EB050027
:100E700003D4C0F1FF3609F10105A5EB09002BE011
:100E8000B9F1010F01DA4FF001090020B9F1110F9A
:100E90000090484601DD112300E003460AAA01A99B
:100EA0000CA8FFF7ABFEDDE90C704D46002683462B
:100EB000207800070AD4AB4500DA5D4601A8012D71
:100EC00004DD411911F8011C302907D04F4502DA21
:100ED00017F1040F04DA012082460FE06D1EEEE7E1
:100EE000002F02DCED1B3E4403E0781CA84200DD2D
:100EF0007D1CB81B00F1010A4FF000472078000765
:100F000003D4AA4501DB4FF0FF3A0021B7F1004FAF
:100F10000DF143088DF8431024D002202B23002F1D
:100F200001DA7F422D230A21021EA0F1010000DC1C
:100F30005FB197FBF1FC97FBF1F201FB1C7C1746BC
:100F40000CF1300C08F801CDEEE7A8F101000370B8
:100F50002188090501D5452100E06521A0F101089E
:100F600000F8011C09980FA9A1EB0807FF1D00B1AB
:100F70000120411901EBEA70A1693844081A401EAA
:100F8000A0612078C00602D42046FFF73DFA0998F8
:100F900028B1D4E901219047206A401C20622078C2
:100FA000C00622D52046FFF72FFA1EE0002E04DBF4
:100FB000B34502DD01A8805D00E03020D4E90121C5
:100FC0009047206A401C2062761CAAF101005FEA6B
:100FD000000A0AD1FFF770FDC0680168405CD4E9DF
:100FE00001219047206A401C2062281EA5F10105BE
:100FF000DCDC07E0D4E9012118F8010B9047206AF6
:10100000401C2062381EA7F10107F3DC2046FFF7E1
:1010100011FA032011B041E62DE9F04F04460D46C8
:10102000D21D22F0070089B0D0E900974846394622
:1010300004F0A9FE0246F80F01D02D2307E0206836
:10104000810701D52B2302E0202101EAC0038DF89E
:1010500020300BB1012000E00020032A824601D09D
:10106000072A04DB2946204600F0F6F93FE1207804
:10107000800601D40D2500E0E569C7F30A560D2D61
:1010800049DA00214FEA175B08464FF00000002FB5
:1010900000F4400007DA00EB80004FF4400100EB61
:1010A000D07001EA60008115012901DD4FF0FF31A8
:1010B00000224FEA850CBCF1180F06D31346ACF1A1
:1010C00018004FF08052C24003E04FF4801323FA1F
:1010D0000CF30CF10C0CBCF1200F04D3ACF1200C80
:1010E00009FA0CF001E007FA0CF000294FF0004873
:1010F00001DD18B90FE00ED140450CD319EB020900
:101100005F4121B9404502D19F4329EA0209BBEB67
:10111000175F00D0761C2088000502D57B487844F4
:1011200002E07A487844193808AA302302F80A30D5
:10113000037C0AF10101002E0AF1020A53546A46A7
:1011400002DC4FF0300101E04FF031014FF00108B7
:101150008DF8001002D0A6F2FF3603E059EA4701ED
:1011600000D06B4E002D02DC2178090704D54FF02A
:1011700002082E218DF80110C44600210BE0C7F3B0
:1011800003433F01C35C491C6D1E02F8083005296A
:1011900008F1010801DA002DF1DC00210CE000EB80
:1011A0001973491C1B786D1E082902F808304FEA94
:1011B000091908F1010801DA002DF0DC21688B061D
:1011C00002D516E0A8F10108E04505DD02EB0803B1
:1011D00013F8013C302BF5D0B8F1000F09DD02EB1C
:1011E000080313F8013C2E2B03D1090701D4A8F101
:1011F0000108002D05DD3E2102F808106D1E08F1E2
:101200000108407C002E02F8080008F1010804DA09
:101210002D20764202F8080002E02B2002F8080098
:101220000A214FF47A70864208F101080BDB96FB25
:10123000F0F3303302F8083096FBF0F308F10108C0
:1012400000FB136601E0642E0CDB642096FBF0F3D8
:10125000303302F8083096FBF0F308F1010800FB88
:10126000136601E00A2E06DB96FBF1F0303002F83F
:10127000080008F1010896FBF1F001FB1060303026
:1012800002F80800A16908F1010808EB050202EB69
:101290000A00081AA0612078C00602D42046FFF791
:1012A000B3F8216A08AE01EB0A00206204E0D4E939
:1012B000012116F8010B9047BAF1010AF7D2207804
:1012C000C00602D52046FFF79FF86E4609E016F8E3
:1012D000010B3E280FD0D4E901219047206A401C21
:1012E0002062B8F10108F2D22046FFF7A3F809B056
:1012F0000320BDE8F08F206A2844206203E0D4E98F
:101300000121302090476D1EEBD3F8E74E4D0000D1
:1013100002FCFFFF10B5436913B1AFF3008001E099
:10132000FFF7ABF8012010BD127800F124010A701C
:1013300000224A700122EDE711684FF0FF32E9E721
:1013400010B5436913B1AFF3008001E0FFF734F942
:10135000012010BD128800F1240182840022C28481
:101360000122EDE711684FF0FF32E9E73A2800D299
:10137000303820F02002412A01D3A2F13700884200
:1013800001D34FF0FF3070472DE9F04116460C466F
:101390000546FFF72DF8036893F80101012807D0EF
:1013A000FF2C12D8185D80B101202C70BDE8F081AF
:1013B000D3F807013246214603F20713C71828461F
:1013C000BC46BDE8F041002360474FF0FF30EDE739
:1013D00030B503461D781DB10A4603E0AC4201D189
:1013E000181A30BD12F8014B002CF7D15B1CF1E745
:1013F00030B503461D783DB10A4612F8014B1CB1C9
:10140000AC42FAD15B1CF5E7181A30BD7546FFF700
:101410004FFBAE4605006946534620F0070085465F
:1014200018B020B5FEF714FFBDE820404FF00006CD
:101430004FF000074FF000084FF0000BAC46ACE84F
:10144000C009ACE8C009ACE8C009ACE8C00921F0AB
:1014500007018D46704700002DE9F0411F46044604
:1014600003260168072A01F4006004DB08B116A511
:1014700005E016A503E008B115A500E015A521F0CB
:1014800010002060A069C01EA0610FB1401EA061C5
:101490002046FEF7B9FF4FB1D4E901213846904705
:1014A000206A401C2062C01C206206E0206AFAE725
:1014B000D4E9012115F8010B9047761EF8D2204699
:1014C000FEF7B8FFBDE8F0814E414E006E616E0040
:1014D000494E4600696E66002DE9F0478146164682
:1014E0008AB0354878440DC88DE80D0032487844FC
:1014F000801C03AC0DC884E80D0041F69B30084405
:10150000372190FBF1F290FBF1F5A5F1800501FB8D
:1015100012041B3C02D56442012000E00020DFF8E9
:1015200098A080460027FA44AAF1BE0A0EE0E00720
:101530000AD03246684607EB470101230AEB8101D6
:1015400004F0EAFA8DE8070064107F1C002CEED14D
:10155000194F7F44AE3F19E0E80715D007EB0410A0
:101560000DF1180A90E80E008AE80E00C068F042FB
:1015700001D1981908903246012306A903A804F066
:10158000CBFA03AB83E807006D10641C002DE3D198
:101590004FF0010332466946B8F1000F03A802D0AC
:1015A00004F0A5FA01E004F0B7FAC9E90001C9F8AE
:1015B00008200AB0BDE8F087184A000010B50446BC
:1015C000AFF300802046BDE81040FEF72CBE0000BF
:1015D00001491820ABBEFEE726000200704700005C
:1015E0002DE9F04F87B040F27001C2F200010860AF
:1015F00040F2B420C2F200000027077040F28620BB
:10160000C2F20000078040F28A20C2F20000078088
:1016100040F28820C2F20000077040F28000C2F25F
:101620000000078040F27400C2F20000077040F230
:101630008410C2F20000077040F2BD20C2F2000028
:10164000077040F2BC20C2F20000077040F2F420A4
:10165000C2F20000077040F2F820C2F200000760FA
:1016600040F27C10C2F200004FF0010880F80080C8
:1016700040F27D10C2F2000080F8008040F2760057
:10168000C2F20000078040F22710C2F2000007708B
:1016900040F27010C2F20000076040F28C20C2F2EB
:1016A0000000077040F27410C2F20000078040F2A0
:1016B0007810C2F20000076040F29020C2F20000F1
:1016C000076040F28E20C2F20000078040F29420B2
:1016D000C2F20000C0E90077C0E90277C0E90477F0
:1016E000C0E9067740F22410C2F20000077040F211
:1016F0002610C2F20000077040F2E200C2F20000C1
:10170000077040F22310C2F2000040F2FC2B077079
:1017100040F22510C2F2000BC2F200008BF80070FC
:10172000077002F063FB044602F066FB054602F018
:1017300069FB4EF21801CEF20001D1F8009041F29F
:101740002401C4F20201D1F800A0064602F048FBD1
:1017500086EA040181EA090181EA0A0146F6C31218
:10176000414040F27C00C7F6C30240F27803C2F267
:1017700000006A40C2F20003016011431A6008BF12
:10178000C0F8008002F02CFB40F28011C830C2F299
:10179000000140F6000440F2C02508600820C4F2B1
:1017A000010404210222C2F20005CDE900240291C5
:1017B000CDE904082846214601222346039403F07C
:1017C000EFFC2846032103F083FD284603F0A6FD25
:1017D00004F580604021012202F0FCFA40F2700022
:1017E000C2F20000006840F28411C2F200010F70E2
:1017F0008BF8007098B140F2B421C2F20001097870
:1018000069B940F2B521C2F200010122012403F0BE
:1018100009FA20B940F2B420C2F20000047046F286
:10182000540046F28921C0F60000C0F6000107B05E
:10183000BDE8F04F03F012BB2DE9F04F9BB002F072
:10184000CFFA40F27001C2F200010A680B908AB12F
:1018500040F2B424C2F20004207858B940F2B52115
:10186000C2F2000110460122012503F0DBF9002835
:1018700008BF257040F28A2840F28623C2F2000891
:10188000C2F20003B8F80000198840F2800540F267
:10189000241B40F2261C40F2E20E40F2231740F2D5
:1018A000251440F274094FF6FF768842C2F2000513
:1018B000C2F2000BC2F2000CC2F2000EC2F200072C
:1018C000C2F20004C2F2000901F074850DA8C11D26
:1018D0000F304FF0000A0A91099015E040F27602AD
:1018E0000130C2F2000210804FF0000A8BF80010A5
:1018F0008CF800108EF8001039702170B8F80000D4
:101900001988884201F05685B8F8000040F2851128
:10191000C2F20001085CB8F800100131C9B2A8F8A1
:1019200000109BF800100529E8D8DFE811F0060048
:10193000DC00E900F20006011E010A2818BF0D288C
:1019400040F0DF8129880029D8D040F28200C2F21D
:1019500000000022425446F28721C0F60001129294
:10196000CDE91022CDE90E224FF0000A0D92FEF7CC
:10197000D3FC002800F03B83002100BF0DAA4C1CC3
:1019800042F8210046F287210020C0F60001FEF750
:10199000C3FC052C02D800282146EFD104F07F00BB
:1019A000013840F225140328C2F2000400F21F831C
:1019B000DFE810F00400D102F70216030D9D0FF6C8
:1019C00024712846FEF7D0FC002800F0418346F23F
:1019D000A7212846C0F60001FEF7C6FC002800F04B
:1019E000C88346F2B6212846C0F60001FEF7BCFCCB
:1019F000002800F04C8446F2B4212846C0F60001CD
:101A0000FEF7B2FC002800F0488646F2AF212846D7
:101A1000C0F60001FEF7A8FC40F280050028C2F2E3
:101A2000000540F0E48240F29424C2F20004E06930
:101A30002678089040F2C0206568C2F200004FF698
:101A4000FF7703F06BFC40F60040C4F20100402138
:101A5000012202F0BFF940F284110020C2F200011D
:101A6000087040F2FC21C2F200010870C4E90000D5
:101A7000C4E90200C4E90400C4E9060040F27600AB
:101A8000C2F2000040F27C1200880121C2F2000282
:101A9000117040F27D11B842C2F200014FF0040211
:101AA0000A7005D040F276010130C2F200010880D0
:101AB0004FF0000A2EB1089A0B9B2846052103F02F
:101AC000F3F945F65A70C0F6000003F0C7F940F28A
:101AD000231740F225144FF6FF76C2F20007C2F238
:101AE000000400F0F8BDAA2800F01081552840F04D
:101AF000108120785530207002208BF80000FDE620
:101B000021788CF800000844207003208BF8000036
:101B1000F4E621784128014421704FF000018EF84D
:101B200000003970C0F0D98040F27600C2F20000A7
:101B30000088B0427FF4D2AED6E639784A1CD3B2E0
:101B40003A7040F2E302C2F20002505421789EF84B
:101B500000200844934240F28623C2F20003207022
:101B600024BF05208BF80000C8E62178814240F0B0
:101B7000BE809CF800109EF8000010294FF0010272
:101B800089F8002040F0D180022840F0F18040F236
:101B9000E300C2F20000067890F801A040F276055A
:101BA00046EA0A20C2F20005D0B140F28C21C2F20E
:101BB00000010978012908D140F27411C2F2000134
:101BC0000988411A09B201290ADB40F27411C2F2F4
:101BD0000001088040F28C210120C2F2000108704F
:101BE00040F29427C2F2000740F2C02097F800901C
:101BF0007C68D7F81CB0C2F2000003F08FFB40F6FF
:101C00000040C4F201004021012202F0E3F840F25A
:101C100084100021C2F20000017040F2FC20C2F2E8
:101C200000000170C7E90011C7E90211C7E90411FA
:101C3000C7E9061140F27C112888C2F20001012296
:101C40000A704FF6FF71884240F27D11C2F2000126
:101C50004FF0040240F223170A701CBF01302880A5
:101C6000B9F1000FC2F2000705D00B9B20460521F9
:101C70005A4603F019F940F27000C2F20000006801
:101C8000E0B145F2AA51C0F690110D9110218DF8E6
:101C900038104FF488518DF839608DF83AA0ADF8BE
:101CA0003B1006EB0A0147390022CDF83D208DF8A4
:101CB00041100DA90E22642302F0E0FF40F27409E6
:101CC000C2F200094FF6FF7640F2251440F280057B
:101CD000C2F20004C2F2000538E200284FF004000E
:101CE0004FF0000A08BF05208BF8000006E640F21E
:101CF0007600C2F2000000880021B0427FF4EEAD11
:101D0000F2E5AA2822D101208BF80000AA20207039
:101D1000F4E500208BF800008CF800008EF800003D
:101D200038704FF0000A2070E8E5A1F12002D2B22D
:101D3000022A55D80628C0F0078140F2E302C2F219
:101D40000002134653F8047B053253E0A0F1200152
:101D5000C9B25E293FF6D2AD29885E2900F26281C0
:101D60004A1C2A8040F28202C2F200025054C5E5A9
:101D700040F27600C2F200000088B04205D040F286
:101D800076010130C2F20001088040F27000C2F218
:101D9000000000680021D0B145F2AA52C0F69012AE
:101DA0000D921022C0F200320E920F228DF83C20CC
:101DB000CDF83D10BA218DF841100DA90E226423F3
:101DC00002F05CFF40F286230021C2F2000340F2E1
:101DD000261C40F2E20EC2F2000CC2F2000E83E5B5
:101DE00002284FF00007C0F0B08040F2E303C2F2D7
:101DF00000035A1C1B781278CDE9073243EA02220D
:101E0000002A00F0098140F28C23C2F200031B7803
:101E1000012B11D140F27413C2F200031B88D31AB4
:101E20001E0400F03F81022606EA9339B9F1000F43
:101E30004FF6FF7640F03A81A1F11103112B00F229
:101E4000AF81DFE813F012005102FE01FE01FE0136
:101E5000FE01FE01FE01FE01FE01FE01FE01FE018A
:101E6000FE01FE01C3020F038D03022840F09B8494
:101E700040F22710C2F2000040F274110078C2F262
:101E800000010A8040F28C2140F2251401284FF015
:101E90000100C2F20001C2F20004087027D140F232
:101EA0007010C2F2000000680B99081AB0F57A7F32
:101EB0001DD840F2841040F29421C2F20000C2F218
:101EC0000001007809780843000610D140F2C020D4
:101ED000C2F2000003F0A4F940F2E20E40F2261C28
:101EE000C2F2000EC2F2000C002800F0738740F22C
:101EF0007600C2F200000088B04205D040F27601C0
:101F00000130C2F20001088040F27000C2F200000D
:101F10000068002800F0B88645F2AA51C0F690117A
:101F20000D911121079B089A8DF8381040F6025147
:101F30008DF839308DF83A20ADF83B1099184839B2
:101F4000CDF83DA000F099BE00274FF002094FF0F8
:101F5000000C0024ACE00D9C0FF690112046FEF71B
:101F600003FA00287BD020460FF68811FEF7FCF913
:101F700040F22514C2F20004C8BB0E9860B101788B
:101F800051B10CA90A22FEF78FF90C99097819B9F9
:101F900004460428C0F0098746F24E10C0F600003F
:101FA000F7E00D9C0FF654112046FEF7DDF90028EE
:101FB00063D020460FF64C11FEF7D6F9002800F04A
:101FC000E48020460FF64411FEF7CEF940F22514C6
:101FD000C2F2000458B945F66C70C0F600000AE081
:101FE0000D980FF63011FEF7BFF90028F3D046F236
:101FF0003E00C0F6000002F031FF40F2261C40F225
:10200000E20E40F28623A5F800A0C2F2000CC2F254
:10201000000EC2F2000371E44FF0000C4FF0020911
:10202000002445E046F2CC00C0F60000A5F800A070
:1020300002F014FF40F2862340F2E20E40F2261C2A
:10204000C2F20003C2F2000EC2F2000CFFF756BC4F
:1020500046F2E000C0F6000002F000FF3BE30E98FD
:1020600030B10FF6B801FEF77FF9002800F0388391
:1020700046F2EB00C0F600008BE00E9858B10178F4
:1020800049B10F9C0CA90A22FEF70EF90C990978A8
:10209000002900F0F58440F22514C2F200040FF686
:1020A0008400A8E74FF001094FF6FF76DDE907C489
:1020B00040F27600C2F200000088AB46B04205D084
:1020C00040F276020130C2F20002108040F270004D
:1020D000C2F20000006860B33A0A3E0C3D0E3B4677
:1020E00045F2AA57C0F690170D978DF8381049445D
:1020F000614419442144114431442944012767397A
:102100008DF839C08DF83A408DF83B708DF83C90D1
:102110008DF83D308DF83E208DF83F608DF84050B1
:102120008DF841100DA90E2264234FF6FF7602F0C0
:10213000A5FD40F2740940F2231740F22514C2F2C3
:102140000009C2F20007C2F200045D4640F2241BFF
:10215000C2F2000B40F2261C40F2E20EC2F2000C6A
:10216000C2F2000E40F28623C2F200030021FFF704
:10217000BBBB46F2771046F28921C0F60000C0F6DC
:102180000001792202F06AFEA5E245F66C70C0F605
:10219000000002F063FE40F22514C2F200042CE7B6
:1021A000FF294ED1032840F08E8440F27410C2F211
:1021B0000000028040F28C200122C2F20000027076
:1021C00040F27000C2F2000040F227110068C2F233
:1021D00000010A700B9940F2701240F22514C2F20D
:1021E0000002C2F20004116010B345F2AA51C0F619
:1021F00090110D91FF218DF83810079A08998DF8EC
:1022000039208DF83A1011440A9A69390023136075
:1022100093808DF841100DA90E22642302F02EFD4B
:1022200040F2E20E40F2261CC2F2000EC2F2000C96
:1022300040F2740940F22317C2F20009C2F200070B
:1022400090E740F27600C2F200000088B04205D06C
:1022500040F276010130C2F20001088040F27000C5
:10226000C2F20000006840F225140028C2F2000407
:1022700000F00A8545F2AA51C0F29F110D914AF66D
:102280001071ADF838100DA9062200F0FABC40F22A
:10229000C020C2F2000002F0C3FF40F28411C2F27B
:1022A00000010A7840F27C11C2F200010B7840F282
:1022B0002711C2F2000140F27D170978C2F200072F
:1022C00097F800E00129844640F0298240F270101E
:1022D000C2F2000000680B99081AB0F57A7F4FF03F
:1022E000000098BF01201BE2022840F08C8240F2DF
:1022F0007004C2F2000440F274112068C2F20001BE
:102300000A8040F28C2200284FF00101C2F2000244
:10231000117000F0988440F27C01C2F2000109685B
:102320000A0A0B0C8DF854200A448DF855301A44D3
:1023300040F27803C2F200031B688DF85310090EB7
:102340008DF8561011441A0A19448DF8582011447A
:102350001A0C8DF8592011441A0E114444318DF88D
:1023600057308DF85A208DF85B1045F2AA51C2F211
:1023700081310D910121C0F279010E910021C6F643
:10238000C3110F9147F6C301ADF8401002218DF83B
:102390004210099947F27232C6F22D620A6043F286
:1023A0003102C2F633524A6043F27A32C7F22D024A
:1023B0008A6043F26262C7F22D62CA600DA92822C8
:1023C000642302F05BFC206800F03EBC172840F05C
:1023D0004C8240F27600C2F2000040F27411008894
:1023E000C2F200010A8040F28C22DDE9074CB042C3
:1023F0004FF00101C2F20002117005D040F27601E7
:102400000130C2F20001088040F27000C2F2000008
:102410000068002800F0BB84390A3A0C3B0E3E46A7
:1024200045F2AA57C0F690170D9720278DF83870FF
:1024300041F201578DF839408DF83AC0ADF83B7044
:102440008DF83D6026448DF83E1031441144194406
:1024500061448DF83F208DF840304FF6FF763239D9
:1024600000F08EBC072840F0658240F29421C2F251
:10247000000140F274130878C2F200031A8040F29F
:102480008C2200284FF00100C2F200021070DDE93A
:10249000074200F003844868874240F0398440F2E4
:1024A0007000C2F200000068002800F0D784390AEA
:1024B0004FEA174C3B0E3E4645F2AA57C0F690171E
:1024C0000D9721278DF838704FF490578DF83940CB
:1024D0008DF83A20ADF83B708DF83D6026448DF8BC
:1024E0003E10314461441944114435398DF83FC0E0
:1024F0008DF840308DF841100DA90E22642302F0B2
:10250000BDFB40F29420C2F20000007840F2740952
:1025100040F2231740F2251440F2261C40F2E20E4E
:1025200040F286230028C2F200094FF6FF76C2F27D
:102530000007C2F20004C2F2000CC2F2000EC2F2A6
:1025400000034FF000013FF4CFA940F29426C2F2FD
:102550000006746840F27C1AC2F2000A00F08BBCDC
:10256000172840F0248240F2E300C2F2000085798F
:10257000D0F80760D0F80B9040F27C10C2F2000057
:1025800040F274110078C2F200010A8040F28C21FE
:1025900000284FF00100C2F20001087040F04582AF
:1025A00040F22710C2F200000078012840F03D827E
:1025B00040F27010C2F2000000680B99081AB0F5E2
:1025C0007A7F00F2328240F2942040F28411C2F20B
:1025D0000000C2F20001007809780843000608D123
:1025E00040F2C020C2F2000002F01AFE002800F003
:1025F000EB8440F2760AC2F2000ABAF800004FF605
:10260000FF76B04205D040F276010130C2F20001FF
:10261000088040F27000C2F200000068DDE9074562
:1026200050B3390A3A0C3B0E3E4645F2AA57C0F663
:1026300090170D9722278DF8387040F601278DF8F6
:1026400039408DF83A50ADF83B708DF83D60264426
:102650008DF83E1031441144194429443B398DF81A
:102660003F208DF840308DF841100DA90E226423D3
:102670004FF6FF7602F002FB40F27409C2F2000945
:1026800040F2231740F2251440F28005C2F2000701
:10269000C2F20004C2F200055CE540F60040C4F25C
:1026A000010001464FF60C40CFF6FF700858CA688B
:1026B000C1B2C2F3801340F28412C2F20002167853
:1026C00000F00F0246F2FE10C0F6000000964FF632
:1026D000FF7602F0C3FB40F28005C2F200058CE4F5
:1026E00040F2C020C2F2000002F09AFD40F28411D4
:1026F00040F29422C2F20001C2F20002097812787C
:1027000040F2251411430906C2F2000408BF002854
:1027100000F01E8246F2DA10C0F600006BE40020E2
:1027200040F29421C2F2000140F2F4270D784C6887
:1027300040F2BD21C2F20007C2F2000140F2BC2605
:1027400097F8009040F2F8270978C2F20006C2F22A
:102750000007002D36783F6808BF2C46CDE900E021
:1027600046F22C20CDE90241C0F600006146CDE9D9
:102770000469069702F072FB40F27409C2F2000984
:1027800040F2231740F2251440F2800540F2241B4A
:102790004FF6FF76C2F20007C2F20004C2F2000553
:1027A000C2F2000B29E440F27600C2F20000008879
:1027B00040F22514B042C2F2000405D040F2760186
:1027C0000130C2F20001088040F27000C2F2000045
:1027D0000068002800F0588245F2AA51C0F6901116
:1027E0000D911121079B089A8DF8381040F603715E
:1027F0008DF839308DF83A20ADF83B1099184539ED
:10280000CDF83DA039E240F27600C2F20000008827
:1028100040F28623B042C2F2000305D040F27601B6
:102820000130C2F20001088040F27000C2F20000E4
:10283000006840F225140028C2F2000400F07F81F5
:1028400045F2AA51C0F690110D911221079B089AEA
:102850008DF8381040F603718DF839308DF83A2034
:10286000ADF83B10991844395CE140F27600C2F2B1
:1028700000000088DDE9074CB04205D040F2760147
:102880000130C2F20001088040F27000C2F2000084
:102890000068002800F07B82390A3A0C3B0E3E4665
:1028A00045F2AA57C0F690170D9720278DF838707B
:1028B00040F603778DF839408DF83AC0ADF83B709B
:1028C0008DF83D6026448DF83E1031441144194482
:1028D00061444FF6FF7636398DF83F208DF8403051
:1028E0004EE200BF50494E47000000005A484F4D8D
:1028F00045000000444550544800000050554D50DC
:1029000000000000434F494C000000004D4F44457B
:10291000000000004D4F564500000000434F4E465A
:1029200049524D004552522C4241445F50554D5042
:102930000D0A000040F27600C2F200000088DDE9D6
:102940000724B04205D040F276010130C2F2000106
:10295000088040F27000C2F200000068002800F019
:102960001682390A4FEA174C3B0E3E4645F2AA57EB
:10297000C0F690170D9721278DF8387040F6037731
:102980008DF839208DF83A40ADF83B708DF83D60F8
:1029900016448DF83E1031446144194421448DF8A9
:1029A0003FC08DF840304FF6FF763539E8E140F210
:1029B0007600C2F200000088B04205D040F27601F5
:1029C0000130C2F20001088040F27000C2F2000043
:1029D0000068DDE90714002800F0D9814FEA172CC0
:1029E0003A0C3B0E3E4645F2AA57C0F690170D979B
:1029F00022278DF8387040F603778DF839108DF85E
:102A00003A40ADF83B708DF83D600E4406EB0C018A
:102A10001144194421448DF83EC08DF83F208DF8B3
:102A200040304FF6FF763439AAE140F2760AC2F21E
:102A3000000ABAF800004FF6FF7140F28623884280
:102A4000C2F2000305D040F276010130C2F200016B
:102A5000088040F22710C2F2000000780B9ADDE9EE
:102A6000074C012840F09C8040F27010C2F2000038
:102A700000680921101AB0F57A7F98BF132190E001
:102A8000214640F225140028C2F2000400F184809F
:102A9000002900F0818001287ED1084608910FF6B8
:102AA0001461FDF761FC002800F0358208980FF6EC
:102AB0000861FDF759FC002814BF0FF600600FF6FF
:102AC0001460FFF798BA40F27600C2F20000008866
:102AD00040F2251440F28623B042C2F20004C2F252
:102AE000000305D040F276010130C2F200010880F7
:102AF00040F27000C2F20000006800B345F2AA5133
:102B0000C0F690110D91FF21079B089A8DF838109F
:102B100040F603718DF839308DF83A20ADF83B104E
:102B200099185739CDF83DA08DF841100DA90E2206
:102B3000642302F0A3F840F28623C2F2000340F2BD
:102B4000740940F22317C2F20009C2F200076FE0D5
:102B500040F2C020C2F2000002F0E0FB40F2BD20D3
:102B6000C2F200000121017040F2BC210020C2F23B
:102B70000001087040F2F421C2F20001087040F236
:102B8000F821C2F20001086046F208104FF0000A76
:102B9000C0F60000FFF72FBA0FF66C50FFF72BBA04
:102BA000092140F27000C2F20000006870B33A0AD6
:102BB0003B0C3E0E3D4645F2AA57C0F690170D97C6
:102BC00022278DF8387002278DF839408DF83AC0E9
:102BD0008DF83B708DF83C108DF83D5025448DF8F4
:102BE0003E202A441A4432446244114444398DF848
:102BF0003F308DF840608DF841100DA90E226423FE
:102C000002F03CF840F28623C2F2000340F274095D
:102C100040F2231740F2251440F28005C2F2000969
:102C20004FF6FF76C2F20007C2F20004C2F20005BE
:102C300040F2261C40F2E20EC2F2000CC2F2000E7C
:102C40000021FEF751BE002040F22514DDE90732D5
:102C5000C2F20004C0B145F2AA51C0F690110D9124
:102C600012218DF838108DF839308DF83A209918E6
:102C70000A9A56390023136093808DF841100DA9EC
:102C80000E22642301F0FAFF40F2740940F2231788
:102C9000C2F20009C2F20007FFF75CBA40F2760008
:102CA000C2F200000088B04205D040F27601013047
:102CB000C2F20001088040F27000C2F20000006819
:102CC000002864D0390A4FEA174C3B0E3E4645F2C5
:102CD000AA57C0F690170D9721278DF8387040F647
:102CE00001378DF839408DF83A20ADF83B708DF8FA
:102CF0003D6026448DF83E1031446144194411442E
:102D00008DF83FC08DF840304FF6FF763B3937E005
:102D100040F27600C2F200000088B04205D040F2D6
:102D200076010130C2F20001088040F27000C2F268
:102D30000000006858B3390A4FEA174C3B0E3E4674
:102D400045F2AA57C0F690170D9721278DF83870D5
:102D500040F601478DF839408DF83A20ADF83B70C8
:102D60008DF83D6026448DF83E103144614419448D
:102D700011448DF83FC08DF840304FF6FF763A3958
:102D80008DF841100DA90E22642301F077FF40F267
:102D9000740940F2231740F22514C2F20009C2F26E
:102DA0000007C2F20004FFF7D5B9002C00F0C5807F
:102DB00040F2841040F29421C2F20000C2F20001FD
:102DC000007809780843000600F0BD800FF648300F
:102DD000FFF7DFB940F27000C2F2000040F27C1150
:102DE0000068C2F2000100220A7040F27D12002148
:102DF000C2F20002117018B345F2AA51C0F6901148
:102E00000D9111218DF83810079A08998DF8392005
:102E10008DF83A1011440A9A0023573913609380B1
:102E20008DF841100DA90E22642301F027FF40F216
:102E3000E20E40F2261C0021C2F2000EC2F2000C8B
:102E400040F2740940F2231740F28623C2F20009CF
:102E5000C2F20007C2F20003FEF746BD40F27C1A40
:102E600040F2942640F274093C46C2F2000AC2F2D3
:102E70000006C2F20009F06940F60047C4F20107FB
:102E8000089038464021012200F0A4FF01208AF872
:102E9000000040F27D10C2F20000062140F2841BC7
:102EA000017040F2C0200025C2F2000BC2F2000007
:102EB0008BF80050C6E90055C6E90255C6E904552D
:102EC000C6E9065502F02AFA38464021012200F0F0
:102ED00081FF40F27600C2F2000000884FF6FF76D4
:102EE00040F2FC21B042C2F200018BF800500D709C
:102EF00005D040F276010130C2F200010880089A44
:102F00000B9B2046032101F0CFFF40F22317C2F2B2
:102F10000007FEF7D9BE40F60040C4F20100402190
:102F2000012200F057FF40F28410C2F2000080F846
:102F300000A00FF6C010FFF75EB846F23110C0F6E1
:102F40000000FFF726B940F2C020C2F2000002F0F4
:102F500067F928B146F2EE10C0F60000FFF719B984
:102F600040F27C10C2F20000007838BB40F227101B
:102F7000C2F200000078012820D140F27010C2F2A5
:102F8000000000680B99081AB0F57A7F16D840F255
:102F9000BD20C2F2000000780B9B4D46002800F0D7
:102FA000278140F2BC20C2F200000078012840F0E6
:102FB000888146F22100C0F600001DE145F68A70C6
:102FC000C0F60000FFF7E5B837B140F27810C2F262
:102FD00000000068874248D240F2760AC2F2000A36
:102FE000BAF800004FF6FF71884205D040F2760132
:102FF0000130C2F20001088040F27000C2F200000D
:10300000006850B3390A3A0C3B0E3E4645F2AA57C7
:10301000C0F690170D972227079C089D8DF83870F1
:1030200040F201478DF839408DF83A50ADF83B70C9
:103030008DF83D6026448DF83E103144114419440A
:10304000294441398DF83F208DF840308DF84110EA
:103050000DA90E22642301F011FE40F27409C2F2A0
:1030600000094FF6FF76FFF70BBB40F2700BC2F280
:10307000000B38D140F27600C2F2000000884FF613
:10308000FF71884205D040F276010130C2F20001A2
:103090000880DBF80000002800F0A3803E46390AD3
:1030A0003A0C3B0E45F2AA57C0F690170D9722270F
:1030B000079C089D8DF8387040F201378DF8394033
:1030C0008DF83A50ADF83B708DF83D6026448DF890
:1030D0003E10314411441944294442398DF83F20AF
:1030E0008DF8403076E0012D3ED1A6F1640047F224
:1030F000CD418842C0F0858040F27600C2F20000E7
:1031000000884FF6FF71884205D040F27601013009
:10311000C2F200010880DBF80000002861D03E46C2
:10312000390A3A0C3B0E45F2AA57C0F690170D9794
:103130002227079C089D8DF8387041F201778DF8A1
:1031400039408DF83A50ADF83B708DF83D6026441B
:103150008DF83E1031441144194429448DF83F2024
:103160008DF840302E3935E040F27600C2F2000092
:1031700000884FF6FF71884205D040F27601013099
:10318000C2F200010880DBF8000050B33E46390A65
:103190003A0C3B0E45F2AA57C0F690170D9722271E
:1031A000079C089D8DF8387040F201578DF8394022
:1031B0008DF83A50ADF83B708DF83D6026448DF89F
:1031C0003E1031441144194429448DF83F208DF8B4
:1031D000403040398DF841100DA90E22642301F0D2
:1031E0004DFD40F27409C2F200094FF6FF768CE6FD
:1031F00045F69E70C0F6000001F030FEA946FFF7CC
:10320000BFBAB145C0F093804DF2CD21A9F5FA7057
:10321000C0F20101884280F08A8040F2781040F2CA
:103220009021C2F200000B9BC2F20001076040F245
:1032300094200968C2F20000012506EB030C09EB9B
:1032400003020570002908BF0121C0E90176C0E929
:103250000393C0E905C2C16140F60040C4F2010019
:10326000402100223C4600F0B5FDDBF8000040F2B2
:1032700084110028C2F200010D70B2D03E46390A16
:103280003A0C3B0E45F2AA57C0F690170D9722272D
:103290008DF83870079D089F8DF839508DF83A7079
:1032A000ADF83BA08DF83D602E448DF83E103144C2
:1032B0001144194439448DF83F208DF84030463987
:1032C00088E7A4F10109B9F1030F69D24FF6004074
:1032D000CFF6FF70A0EB492140F2C020C2F20000FF
:1032E0000C2201F0A1FF00285FD04FF4806000EBBA
:1032F000492240F2BD20C2F2000080F800A040F256
:10330000BC20C2F200000121017040F2F420C2F2A0
:103310000000047040F2F820C2F20000026045F69E
:10332000B870C0F60000214601F098FD66E740F253
:103330007600C2F2000000884FF6FF71884205D087
:1033400040F276010130C2F200010880DBF8000093
:1033500000283FF446AF3E46390A3A0C3B0E45F290
:10336000AA57C0F690170D972227079C089D8DF845
:10337000387040F201778DF839408DF83A50ADF849
:103380003B708DF83D6026448DF83E103144114469
:10339000194429448DF83F208DF840303E3919E713
:1033A00046F2B500C0F6000026E746F2EE10C0F681
:1033B000000021E740F28820C2F2000001782A468E
:1033C00040F29425DDF82CA0C2F20005E9B10021FD
:1033D000017040F27600C2F2000000881180B04215
:1033E0008BF800108CF800108EF8001039702170E6
:1033F00005D040F276010130C2F20001088046F2A9
:103400006510C0F6000001F029FD40F27C16C2F202
:103410000006307840F2FC2B0028C2F2000B58D195
:1034200040F22710C2F200000078012809D140F2D2
:103430007010C2F200000068AAEB0000B0F57A7FBD
:1034400047D940F2C0202C786F68D5F81C80C2F2B2
:10345000000001F063FF40F60040C4F2010040218B
:103460000122012600F0B6FC40F28410C2F20000F6
:103470000021017040F27C10C2F20000067040F2A0
:103480007600C2F2000000888BF80010C5E9001138
:10349000C5E90211C5E90411C5E9061140F27C161F
:1034A0004FF6FF7340F27D11C2F20006C2F2000136
:1034B000022298420A7005D040F276010130C2F231
:1034C000000108802CB1384606214246534601F0DF
:1034D000EBFC2878002873D0A869BAEB00004DD423
:1034E00040F60048C4F201086F68D5F81CA04046B9
:1034F0004021012200F06EFC0120307040F27D106E
:10350000C2F20000032140F28419017040F2C02091
:10351000C2F200090024C2F2000089F80040C5E9A7
:103520000044C5E90244C5E90444C5E9064401F084
:10353000F5FE40464021012200F04CFC40F27600AE
:10354000C2F2000000884FF6FF71884289F80040FF
:103550008BF8004005D040F276010130C2F2000144
:1035600008805246DDF82CA038460221534601F06F
:103570009BFC40F27409C2F2000921E06869BAEBD1
:1035800000001DD440F600406C68EE69C4F20100F2
:103590004021012200F01EFC40F28410C2F2000023
:1035A00000210170C5E90011C5E90211C5E9041146
:1035B000C5E90611204607213246534601F074FC46
:1035C00040F2C024C2F200042046514601F0C2FE7F
:1035D000204601F025FE044690B99BF8000078B122
:1035E00040F2F420C2F20000017840F2F820C2F26A
:1035F0000000026845F6EE70C0F6000001F02EFCF7
:1036000099F800008BF80040012840F04F8140F20B
:103610008010C2F200000168BAEB010100F146819E
:103620000AF1C801016040F27C0040F27D18C2F24C
:103630000000C2F20008036840F2780098F8001019
:1036400040F22719C2F20000C2F200090268081F06
:1036500099F80040B0FA80F04FEA5010F4B140F20F
:103660007017C2F200073F6840F27C15C2F20005F5
:10367000AAEB070706462D78B7F57A7F98BF203664
:1036800040F2700B65F38616C2F2000BCDB9B7F5A8
:103690007A7F98BF06F18000064612E040F27C1760
:1036A000C2F2000740F270163F78C2F20006366898
:1036B00067F3861040F2700BAAEB06070646C2F2CB
:1036C000000B002C08BF4FF0FF37DBF8000000288C
:1036D00051D045F2AA55C1F282151C0A0D9500255C
:1036E0008DF841501D0C8DF839401C448DF83A502E
:1036F00025448DF838301B0E8DF83B302B44134495
:103700008DF844101944130A8DF83D301944130CF8
:103710008DF83E3019448DF83C20120E114431448E
:103720008DF83F203A0A39448DF840608DF84620E4
:1037300011443A0C8DF84720114440F27602C2F24F
:10374000000212883B0E19448DF845708DF8483000
:103750008DF842201144120A11446E398DF843202D
:103760008DF849100DA91622642301F087FA98F804
:10377000001099F8004040F29420C2F2000040F29C
:10378000902702460078C2F2000752683E6800287F
:1037900008BF024640F28410731CC2F2000028BF2A
:1037A000B31C90F800C0081F40F27C15B0FA80F0FE
:1037B000C2F200054FEA50103B60ACB140F270110C
:1037C000C2F2000109682E78AAEB01070146B7F59D
:1037D0007A7F98BF203166F386114EB9B7F57A7FAC
:1037E00098BF01F1800002E0297861F3861001465C
:1037F000DBF80000002859D01C0E0A90604645F204
:10380000AA5C170A4FEA124B4FEA12680994C1F2F8
:10381000837CCDF834C08DF838208DF839708DF860
:103820003AB0C4468DF83B80DDF8248008974FEA13
:10383000132E4FEA13494FF000474FEA1A268DF82E
:103840003C308DF83DE08DF83E908DF83F808DF84E
:103850004000CDF84170CDF8457000274FEA1A447A
:103860008DF849108DF84A700AEB06074FEA1A6581
:1038700027448DF84BA08DF84C608DF84D402F44B7
:10388000089C3A4422445A44624402441A44724412
:103890004A444244114467390A988DF84E508DF8D5
:1038A0004F100DA91C22642301F0E8F91BB0BDE8FC
:1038B000F08F00BF4F4646004F4E00004552522C3D
:1038C0004241445F50554D505F53544154450D0A99
:1038D000000000004552522C554E424F554E444573
:1038E000445F50554D505F44495341424C45440D4F
:1038F0000A00000041434B2C50554D502C312C4FA9
:1039000046460D0A000000004552522C4241445FD9
:1039100050554D500D0A00004552522C50554D50F7
:103920005F4143544956450D0A0000002DE9F04F10
:1039300081B040F27007C2F200073968814202D0BC
:1039400001B0BDE8F08F40F2B424C2F200040025BB
:1039500040F2841840F294262570C2F20008C2F2A8
:10396000000698F800003178084300064AD000F0BD
:1039700037FA009040F2C0203478D6F804B0D6F878
:103980001CA0C2F2000001F0C9FC40F60040C4F2E5
:103990000100402101224FF0010900F01BFA40F222
:1039A000FC20C2F20000057040F27C10C2F2000060
:1039B00080F8009040F27600C2F20000018840F2E8
:1039C0007D124FF6FF73C2F2000299424FF00203DC
:1039D00088F80050C6E90055C6E90255C6E9045505
:1039E000C6E9065513701CBF01310180002C40F25E
:1039F000B424C2F2000405D0009B5846062152466A
:103A000001F052FA386800289AD02178002997D11D
:103A100040F2B521C2F200010122012501F002F9B4
:103A2000002808BF257001B0BDE8F08F70B540F2E6
:103A30007001C2F20001096881422BD140F2B42624
:103A4000C2F200060021317040F28621C2F200016C
:103A50000A8840F28A23C2F2000301321B88D2B2E4
:103A60009A4206D140F28821C2F2000101220A7076
:103A70000BE040F2B523C2F200031B780D8840F240
:103A80008514C2F2000463550A80002808BF70BD87
:103A9000317801B170BD40F2B521C2F200010122BE
:103AA000012501F0BFF8002808BF357070BD000087
:103AB000FEE700007047000040F60040C4F201003D
:103AC0004021012200F086F9EFF3108072B600BFAA
:103AD000FEE70000014690F82100022813D1086893
:103AE000D1E90FC3026822F00E020260026822F0E0
:103AF00001020260012000FA03F2CCF8042081F8F0
:103B00002100002002E0042088630120002281F8C7
:103B10002020704780B590F82110022923D1026837
:103B2000116821F00E0111602F211368C4F2020107
:103B30008A4240F20401C4F2020123F0010313603F
:103B400016DD3023C4F202039A421DD04423C4F28E
:103B500002039A421BD05823C4F202039A421BD19B
:103B60004FF4803320E0042181630121084680BDA9
:103B70000823C4F202039A420CD01C23C4F20203AD
:103B80009A4209D110230FE04FF480730CE04FF4F8
:103B9000805309E0012307E001F1680C4FF08073C6
:103BA000624508BF4FF480130B60012180F821109B
:103BB000426B002180F820100AB19047002108468E
:103BC00080BD00002DE9F04F82B00E68002E00F09D
:103BD000FE8040F20C4C41F200424FF6FF7BC4F2F3
:103BE000010CC4F20102042300240127C1F2100BCE
:103BF0004FF0000A4FF000094FF00F0E904208BF3F
:103C0000032300933EE00123BB402B4342F82B30BB
:103C1000D1F804B040F20047C4F201075FEACB22BA
:103C2000BA6854BF22EA080242EA0802BA60DCF825
:103C300000205FEA8B2354BF22EA080242EA08020E
:103C4000CCF800207A685FEA8B3354BF22EA08027E
:103C500042EA08027A605FEACB333A684FF6FF7BAC
:103C600054BF22EA080242EA08023A600127C1F280
:103C7000100B0E680AF1010A36FA0AF204F1040484
:103C800000F0A58007FA0AF816EA080FF1D04A6892
:103C90005A4511DC122A51D8DFE802F0340A4246B4
:103CA00050505050505050505050505050494D006E
:103CB000D1F80C9042E000BF4FF6FF73C1F2210330
:103CC0009A420FDC0023C1F211039A421AD000235A
:103CD000C1F212039A4215D00023C1F221039A4285
:103CE00010D02BE00023C1F222039A420AD0002315
:103CF000C1F231039A4205D00023C1F232039A4245
:103D00001CD100BF8A6842B1012A14BFC0F81480D8
:103D1000C0F810804FF0080910E04FF004090DE0E2
:103D2000CA6802F1080909E04FF0000906E0CA6814
:103D300002F1040902E0CA6802F10C0922460346B6
:103D4000BAF1080F24BF203A04331D680EFA02F6B8
:103D5000B54309FA02F22A431A60CA79D2067FF5FE
:103D600088AF41F21802C4F20202134612684FEA09
:103D70009A0B42F001021A601A6804F00C0702F074
:103D800001020192019A40F20042C4F20102A2F53E
:103D90007E7252F82B3040F600060EFA07F5C4F298
:103DA0000106B04223EA05050FD040F60043C4F2F5
:103DB000010398423FF427AF41F20003C4F201032C
:103DC0009842009B08BF02231EE700231CE702B0B5
:103DD000BDE8F08F002A08BF0904016170470000A8
:103DE00040F2B820C2F20000006870474FF2E8705D
:103DF000C1F6FF70006870474FF2EC70C1F6FF70BB
:103E0000006870474FF2F070C1F6FF7000687047AD
:103E100040F2080040F2B821C2F20000C2F20001F4
:103E200000780A68104408607047000080B542F2CC
:103E30000000C4F20200016841F01001016003209B
:103E400000F08EF80F2000F005F800F02BF80020AD
:103E500080BD0000B0B540F20802C2F2000240F29C
:103E600004011278C2F200014FF47A730968B3FBBF
:103E7000F2F20446B1FBF2F1084600F055FB0F2CBC
:103E80004FF001050CD858B94FF0FF302146002201
:103E9000002500F039F840F20C00C2F20000046086
:103EA0002846B0BD82B041F21800C4F20200016899
:103EB000022241F001010160016801F0010101915C
:103EC0000199416841F080514160406800F08050A4
:103ED000009000980420C4F20100016862F31A61A6
:103EE000016002B070470000002848BF704700F032
:103EF0001F01012202FA01F14EF200124009CEF236
:103F0000000242F82010704710B54EF60C5CCEF25D
:103F1000000CDCF80030C3F3022E8EF00704042CF2
:103F200028BF0424BEF103034FF0FF3E0EFA04F451
:103F300038BF0023A14399400EFA03F39A4300F0DF
:103F40000F03043B1143634409010C3300F1604249
:103F5000B0F1FF3FC8BF02F56443197010BD000007
:103F60004EF60C51CEF200010A684FF6FF031A40DC
:103F700060F30A2242F0806040F0FD7008607047F4
:103F80002DE9F04381B0002800F0AB8042F2000838
:103F9000C4F202080446D8F800000D4600F00700FD
:103FA00088420DD2D8F8000020F007002843C8F856
:103FB0000000D8F8000000F00700A84240F091800F
:103FC000206841F204098107C4F2020917D54107AC
:103FD00005D5D9F8001041F4E061C9F800100107D7
:103FE00005D5D9F8001041F46051C9F80010D9F88E
:103FF0000010A26821F0F0011143C9F80010C007B9
:104000002DD06068012804D159F8041C890368D5B3
:1040100008E059F8041C022802D1890161D501E0A9
:1040200089075ED5D9F8001021F003010843C9F8CB
:104030000000FFF7D5FE064641F28837D9F80000A8
:10404000616800F00C00B0EB810F08D0FFF7C8FEEC
:10405000801BB842F2D9032001B0BDE8F083D8F844
:10406000000000F00700A8420CD9D8F8000020F0AA
:1040700007002843C8F80000D8F8000000F0070047
:10408000A8422ED12068410707D5D9F80010E26870
:1040900021F4E0611143C9F80010000708D5D9F8F0
:1040A0000000216920F4605040EAC100C9F8000016
:1040B000D9F8002002F00C00082841F20020C0F2DC
:1040C0007A001ED145F63273C2F38341C0F6000375
:1040D000595CD20309D440F60010C0F23D004843B9
:1040E0000FE0012001B0BDE8F083D9F8002045F6CB
:1040F0003073C2F34042C0F600039A5C4843B0FB01
:10410000F2F0D9F8001045F61872C1F30311C0F6A9
:104110000002515C40F2040220FA01F140F20C006E
:10412000C2F200000068C2F200021160FFF792FEC6
:10413000002001B0BDE8F08340F2040041F2040128
:10414000C2F20000C4F202010068096845F6287254
:10415000C1F30221C0F60002515CC8407047000064
:1041600040F2040041F20401C2F20000C4F2020174
:104170000068096845F62872C1F3C221C0F6000242
:10418000515CC840704700002DE9F04182B0002822
:1041900000F0A5800446007841F20006C007C4F292
:1041A00002064CD0706800F00C00042817D070682C
:1041B00000F00C00082802D17068C0030FD46068BA
:1041C00098B1B0F5803F06D03168B0F5A02F22D16C
:1041D00041F480203060306840F4803021E0306865
:1041E00080032CD5606850BB79E0306820F48030C3
:1041F0003060306820F480203060FFF7F1FD054624
:10420000306880031BD5FFF7EBFD401B64284FF09F
:104210000300F5D984E121F480303060306820F467
:1042200080203060FFF7DCFD054600BF306880036A
:1042300005D4FFF7D5FD401B6428F7D940E120786D
:1042400080072FD5706810F00C0F07D0706800F051
:104250000C00082809D17068C00306D430688007B4
:1042600019D5206901283AD115E02069002840F2CB
:104270000000C4F2422000F0E38001210160FFF75A
:10428000AFFD05463068800705D4FFF7A9FD401B48
:104290000228F7D914E13068616920F0F80040EA9B
:1042A000C1003060207800071DD4207840072ED44C
:1042B000E569002D00F03381706800F00C000828DB
:1042C00071D1012D0BD07068216A00F480328A42CE
:1042D00005D1616A00F47010884200F0208101204D
:1042E00002B0BDE8F081A06900B30020C4F2422012
:1042F0000121C0F88014FFF773FD0546706A80073E
:1043000074D4FFF76DFD401B0228F7D9D8E0F0699F
:10431000C0001ED4F0694FF0010840F08050F061F9
:10432000F06900F080500090009814E00020C4F282
:1043300042200021C0F88014FFF752FD054600BF5F
:10434000706A8007B1D5FFF74BFD401B0228F7D9F3
:10435000B6E04FF0000847F20007C4F200073868E3
:10436000C00510D4386840F480703860FFF738FD1D
:10437000054600BF3868C00505D4FFF731FD401B76
:104380006428F7D99CE0E06800286BD0012806D0AB
:10439000316A052840F07F8041F004003062306AC5
:1043A00040F001007DE00027C4F24227002038667B
:1043B000FFF716FD022D05460CD100BF30688001C5
:1043C00040F18B80FFF70CFD401B02284FF00300EB
:1043D000F4D9A5E03068800140F1A180FFF700FD2D
:1043E000401B02284FF00300F4D999E040F204008A
:1043F000C2F20000006844F6D351C1F26201A0FB92
:104400000101480A019000BF00BF0198411E002829
:1044100001913FF44AAF00BF0198411E002801916D
:104420003FF443AF00BF0198411E002801913FF4C3
:104430003CAF00BF0198411E00280191E4D134E750
:1044400000210160FFF7CCFC054600BF3068800703
:104450007FF528AFFFF7C4FC401B02284FF0030094
:10446000F4D95DE0306A20F001003062306A20F05B
:1044700004003062FFF7B4FC054641F2883700BF04
:10448000306A800720D5FFF7ABFC401BB8424FF0E5
:104490000300F5D944E021F001003062306A20F0D9
:1044A00004003062FFF79CFC054641F2883700BFEC
:1044B000306A800708D4FFF793FC401BB842F7D955
:1044C000032002B0BDE8F081B8F1000F3FF4F0AE78
:1044D000F06920F08050F061EAE6206AB0F5803F94
:1044E00005D17168A26821F40031114371607168CF
:1044F000626A21F474111043084370600120386629
:10450000FFF76EFC044600BF3068800107D4FFF758
:1045100067FC001B02284FF00300F5D900E00020E3
:1045200002B0BDE8F0810000411E0020B0EB116F29
:104530001CBF012070474EF21002CEF20002516003
:104540004EF62351CEF20001F0230B70072190604C
:104550001160704770470000FFF7E8B9F0B581B00F
:10456000044600680168C268456901F02F03202BEA
:1045700002F0200306D12BB1204601B0BDE8F04087
:1045800000F0A2BF5FEA017C07D005F0010E12F433
:10459000907F8EF001052FD175B3236B1140CA06B1
:1045A00017D5012B15D100210091016800914168B8
:1045B000009100994169490600F18081A18DE28D49
:1045C000E38D002B1CBF891A5FEA014200F068826C
:1045D000FBE00A0600F12B82490640F16182C168C6
:1045E00021F04001C1602021204684F8411001B033
:1045F000BDE8F04000F0B8BBCE0718BF12F48076DB
:1046000003D0666C46F00106666401F004070126DB
:1046100086EA97072F4303D1676C47F00207676468
:1046200001F0020786EA5706354303D1656C45F071
:104630000405656453EA0E0318BF0123BCF1000FA3
:1046400004D51BB1636C43F008036364636C002BF7
:1046500000F026821140890603D5204600F034FF81
:1046600020684169626C01F0400102F0080289187B
:1046700000F0ED8150E8030F216820F4907041E8CC
:104680000302C2B3206850E8030F216820F4907041
:1046900041E803027AB3206850E8030F216820F450
:1046A000907041E8030232B3206850E8030F21689C
:1046B00020F4907041E80302EAB12068DAE700BF15
:1046C000206850E8050F216820F0010041E805024C
:1046D000DAB1206850E8050F216820F0010041E8B8
:1046E000050292B1206850E8050F216820F0010012
:1046F00041E805024AB1206850E8050F216820F022
:10470000010041E80502002ADAD1206B012824D1FA
:10471000206850E8030F216820F0100041E80302F0
:10472000DAB1206850E8030F216820F0100041E85A
:10473000030292B1206850E8030F216820F01000B6
:1047400041E803024AB1206850E8030F216820F0D5
:10475000100041E80302002ADAD1202084F8420048
:104760000020206320684169490640F1878150E8B4
:10477000050F216820F0400041E80502002A00F002
:104780006D81206850E8050F216820F0400041E865
:104790000502002A00F06281206850E8050F2168B8
:1047A00020F0400041E80502002A00F0578120680F
:1047B00050E8050F216820F0400041E80502002A7A
:1047C00000F04C812068D2E7206850E8030F22688F
:1047D00020F4907042E80303BBB3206850E8030F55
:1047E000226820F4907042E8030373B3206850E815
:1047F000030F226820F4907042E803032BB3206873
:1048000050E8030F226820F4907042E80303002B65
:10481000DAD11AE0206850E8050F226820F0010084
:1048200042E80503DBB1206850E8050F226820F05C
:10483000010042E8050393B1206850E8050F2268A3
:1048400020F0010042E805034BB1206850E8050F55
:10485000226820F0010042E80503002BDAD1202075
:1048600084F8420000202063206850E8030F22688B
:1048700020F0100042E80303DBB1206850E8030F8A
:10488000226820F0100042E8030393B1206850E84A
:10489000030F226820F0100042E803034BB12068A8
:1048A00050E8030F226820F0100042E80303002BB9
:1048B000DAD1022289B220466263B3E0E26B11686A
:1048C0004B689EB2002E00F0EB80A18D8E4280F0EE
:1048D000E780E3859269202A00F09E8050E8030F6C
:1048E000216820F4807041E80302E2B1206850E8BA
:1048F000030F216820F4807041E803029AB1206818
:1049000050E8030F216820F4807041E8030252B19F
:10491000206850E8030F216820F4807041E803020A
:104920000AB12068DAE7206850E8050F216820F016
:10493000010041E80502BAB3206850E8050F21687C
:1049400020F0010041E8050272B3206850E8050F2D
:10495000216820F0010041E805022AB3206850E8F0
:10496000050F216820F0010041E80502002ADAD194
:104970001AE0206850E8050F216820F0400041E867
:104980000502DAB1206850E8050F216820F04000E8
:1049900041E8050292B1206850E8050F216820F037
:1049A000400041E805024AB1206850E8050F21683F
:1049B00020F0400041E80502002ADAD1202084F8E6
:1049C000420000202063206850E8030F216820F097
:1049D000100041E80302DAB1206850E8030F2168B3
:1049E00020F0100041E8030292B1206850E8030F64
:1049F000216820F0100041E803024AB1206850E825
:104A0000030F216820F0100041E80302002ADAD1E8
:104A1000E06BFFF75FF8A18D02206063E08D081A5C
:104A200081B2204601B0BDE8F040FFF793BD94F895
:104A30004110212934D1A168B1F5805F01D12169EC
:104A400011B3216A4A1C22620978416023E02046A2
:104A5000FFF782FD0020606401B0F0BDE06B68B13B
:104A600045F2BD41C0F600014163FFF753F8B8B10C
:104A7000E06B416B01B0BDE8F0400847204601B053
:104A8000BDE8F040FFF768BD216A31F8022B6FF3F3
:104A90005F2242602162E18C01390A04E18401D085
:104AA00001B0F0BDC16821F08001C160C16841F072
:104AB0004001C16001B0F0BD002804BF0120704773
:104AC00010B5044690F8410028B9002084F8400051
:104AD000204600F05FF8242084F841002068D4E9E3
:104AE0000212C36823F40053C360036923F44053E4
:104AF0001A430261D4E904231143C268194341F205
:104B00000C639A431143C1604169A26921F4407169
:104B1000114343F60002C4F201029042416102D007
:104B2000FFF70AFB01E0FFF71BFB6268192148430E
:104B30009100B0FBF1F048F21F51C5F2EB11A0FB60
:104B400001235A096FF0630302FB0300322303EBD6
:104B50000010A0FB0101F02303EA5113206803EBCE
:104B60000212C1F3431111448160016921F49041A3
:104B70000161416921F02A014161C16841F400519C
:104B8000C16000202021606484F8411084F8421044
:104B9000606310BD70B586B0002640F6000405962F
:104BA000CDE90366C4F20104006804F5405188426F
:104BB000029601D006B070BD41F21800C4F20200A6
:104BC000016802AD41F480410160016801F4804157
:104BD00001910199016841F00401016000682946D2
:104BE00000F00400019001984FF400700290022040
:104BF0000390032005902046FEF7E4FF4FF4806009
:104C0000CDE90206204629460496FEF7DBFF252063
:104C100000210022FFF778F92520FFF765F906B09B
:104C200070BD000090F84230202B1EBF02231846B2
:104C3000704700294FF0010318BF002A01D1184620
:104C4000704700230363816222218285C285436409
:104C500080F842100169006819B1C16841F480719F
:104C6000C1604169002341F001014161C16841F027
:104C70002001C16018467047FEF7D8BE2DE9F04309
:104C800081B0044690F8410020285BD18946002974
:104C90004FF0010065D01646002A62D04FF00008A0
:104CA00021201D46C4F8448084F84100FFF798F89D
:104CB000A684E684A1680646B1F5805F05D1206927
:104CC000002814BF4846C8468146E28C2068016827
:104CD00032B36F1C090604D50EE000BF0168090657
:104CE0000AD4002FFAD0FFF77BF87DB3801BA842CF
:104CF0002CD82068C168F1E7B9F1000F02D019F88B
:104D0000011B05E038F8021B4FF000096FF35F212B
:104D10004160E18C0139E184E28C0168002ADED136
:104D200049061AD46F1C27B90168490615D4002F0B
:104D3000FAD0FFF755F84DB1801BA84206D820687D
:104D4000C168F1E7022001B0BDE8F083202084F8BB
:104D50004100032001B0BDE8F083202084F8410029
:104D6000002001B0BDE8F08370470000FEE70000BE
:104D70002DE9F04784B041F21800C4F20200016846
:104D800040F6000441F0200101600168C4F2010412
:104D900001F02001009100990168002241F0040116
:104DA000016001684FF0FF0901F0040100910099D2
:104DB00001684FF0000A41F0080101600068FF211E
:104DC00000F00800009000982046FFF703F804F573
:104DD00080652846402101224FF040080126FEF759
:104DE000F9FFCDE900966E46022720463146CDF800
:104DF00008A00397FEF7E6FE1120CDF80080CDE96C
:104E0000010A284631460397FEF7DCFE04B0BDE8F0
:104E1000F087000080B540F2281043F60001C2F28E
:104E20000000C4F2010100234FF00C0C4FF4E132FA
:104E300080E80E00C0E90333C0E905C3C361FFF792
:104E40003BFE002808BF80BDBDE88040FEF734BEB1
:104E5000FEE70000FEE700007047000083B080B569
:104E6000A9B084462BA80EC02BAB01A8A021624696
:104E70000093FBF7FFF901280EDB40F27001C2F24C
:104E800000010B6843B19F2828BF9F2082B201A96F
:104E900018466423FFF7F2FE29B0BDE8804003B056
:104EA00070470000704700002DE9F04FAFB0054695
:104EB00040F29020C2F20000D0F8009040F28E2024
:104EC0009346C2F200000F46002A08BF4FF0010BC4
:104ED0000188D94501F101021FFA82F838BFD9468D
:104EE000904518BF01F10208A0F8008014A80F3007
:104EF00022211C46FBF716FA40F27C00C2F20000A9
:104F000040F278010068C2F20001D1F800A0020A64
:104F10008DF850008DF85120020C4FEA106E4FEAC8
:104F20001A208DF852208DF853E08DF854A00A9085
:104F30008DF855004FEA1A4007908DF856004FEA59
:104F40001A6006908DF85700280A8DF85850059081
:104F50008DF85900280C04908DF85A00280E039003
:104F60008DF85B008DF85C80C8F3072002904FEA53
:104F700018208DF85D004FEA1B2011978DF85E70A8
:104F80008DF867B008908DF868004FEA1B424FEA31
:104F90001B674FEA192301208DF869208DF86A708C
:104FA0008DF86B908DF86C30ADF86F0000208DF8A7
:104FB0007E0040F22710C2F2000000784FEA19414B
:104FC00000284FEA19608DF86D1001908DF86E0081
:104FD0004FEA14264FEA14408DF87A408DF87B6032
:104FE0000B908DF87C0040F27D10C2F2000000783A
:104FF0004FEA146CA0F10400B0FA80F04FEA5010B0
:10500000CDE90F130CA9CDF824C08DF87DC0CDE9F2
:10501000127281E8504019D040F27012C2F20002C0
:1050200012688646A11A40F27C12C2F2000212787F
:10503000B1F57A7F98BF0EF1200E62F3861E6AB931
:10504000B1F57A7F98BF0EF1800006E040F27C1245
:10505000C2F20002127862F38610864640F27000B7
:10506000C2F200000068002200288DF87FE08DF871
:10507000802000F0918045F2AA52149BC3F2841262
:10508000CDE92123DDE915239DF85270CDE92323D5
:10509000DDE917230E99CDE92523199A1F9B279245
:1050A0002D93DDE91D32CDE92B32DDE91B32CDE94F
:1050B00029321A9A9DF8803028928DF8B8309DF8E0
:1050C00050209DF851301A443A440A4402EB0A0138
:1050D0000A9A9DF860301144079A1144069A1144C7
:1050E000059A29441144049A1144039A1144029ADE
:1050F00041441144119A11449DF85F2011449DF8D8
:10510000612019449DF8623011449DF863201944D0
:105110009DF8643011449DF8652019449DF866306F
:1051200011441944089A59441144139A019B11449B
:10513000129A1144109A494411440F9A11449DF84F
:105140007120194411449DF872209DF87330114468
:105150009DF8742019449DF8753011449DF876200F
:1051600019449DF8773011449DF8782019449DF832
:10517000793011440C9A194411440D9A6423114456
:105180000B9A1144099A114471444B398DF8B910A6
:1051900021A93622FFF772FD2FB0BDE8F08F000085
:1051A000F0B581B00446DDE90806DDE9065794460E
:1051B000DDE90A2E84E88A00E660A4F810C0658262
:1051C000A0824FF0FF30E282BEF1FF3FC8BF012056
:1051D00020760120A4F819000320E07600200522A3
:1051E00004F11C0E32238EE80D00C4E90A0020866B
:1051F000084661460022FEF7EDFD6068618A0022E4
:10520000FEF7E8FDA068A18A0022FEF7E3FDE06852
:10521000E18A002201B0BDE8F040FEF7DBBD0000EE
:1052200090F8310070470000F0B581B005464800A5
:105230004FF0000649D095F83100002845D10029EB
:1052400008461C4648BF484201294FF001012B7E09
:10525000B8BF4FF0FF3159436976052A114605F171
:105260001C034FF0010698BF0521322998BF322256
:1052700007C30020E86285F83060A87EE97E45F625
:105280004272C0F6000200F0030002EB81010F5CE5
:105290002868298A07F00102FEF79CFD6868698A80
:1052A000C7F34002FEF796FDA868A98AC7F38002FB
:1052B000FEF790FDE868E98AC7F3C002FEF78AFDB1
:1052C00004F19600A86285F83160304601B0F0BD67
:1052D00010B5044605294FF000001ED894F831207F
:1052E000002A18BF10BD0022E176A2762068218A2C
:1052F00084F830200022FEF76DFD6068618A00228C
:10530000FEF768FDA068A18A0022FEF763FDE06851
:10531000E18A0022FEF75EFD012010BD10B50022DB
:105320000446C2610068218A22860022FEF752FDEF
:105330006068618A0022FEF74DFDA068A18A002204
:10534000FEF748FDE068E18A0022BDE81040FEF764
:1053500041BD000070B5044690F83100002862D0CD
:10536000A06A0D46081A48BF70BD94F830000328A3
:1053700018D10022E2612068218A22860022FEF7ED
:1053800029FD6068618A0022FEF724FDA068A18AD9
:105390000022FEF71FFDE068E18A0022BDE87040B0
:1053A000FEF718BD022084F8300094F91900A17EA0
:1053B00001220128B8BF0322501800F00300A07694
:1053C000E17E45F64272C0F6000202EB81010E5CFE
:1053D0002068218A06F00102FEF7FCFC6068618A01
:1053E000C6F34002FEF7F6FCA068A18AC6F380026D
:1053F000FEF7F0FCE068E18AC6F3C002FEF7EAFCC3
:10540000E0690138E0610FD0D4E90810884208D97A
:10541000E16A01310429E16203D3013800216062AD
:10542000E1622844A06270BD032084F8300005F5D5
:105430009670A06270BD0000FEF7EABC70B590B037
:10544000002401264FF480300225CDE90B44CDE93C
:1054500009440696CDE907040A96CDE90D504FF4AC
:10546000E0100F9006A80594CDE90344CDE901446E
:10547000FEF78AFE68B10320CDE906044FF4601000
:1054800008940A96CDE90D540F9006A8FEF77CFE0D
:1054900078B90F20CDE901054FF480600394CDE980
:1054A000040401A80221FEF76BFD002804BF10B020
:1054B00070BDFEF701FB000070470000406A00214C
:1054C000C185C184FFF748B881B090F84210222905
:1054D00020D18368B3F5805F08D10169002964D0C9
:1054E00000F128010A6803685B680AE0014651F888
:1054F000282F13B90369002BF5D003685B6803F00C
:105500007F0313700A6801320A60C18D01390A04F1
:10551000C18501D001B070470168CA6822F020023D
:10552000CA60CA6822F48072CA604A6922F0010225
:105530004A61202280F8422000224263036B012B43
:105540003CD1026351E8031F026821F0100142E8D8
:1055500003130168DBB151E8031F026821F0100159
:1055600042E80313016893B151E8031F026821F078
:10557000100142E8031301684BB151E8031F0268B0
:1055800021F0100142E803130168002BDAD10A6808
:10559000D20606D5002200920A680092496800915E
:1055A0000099818D01B0FEF7D5BF0168826A496814
:1055B0006FF35F2122F8021B8262A6E701B0FFF7BA
:1055C0005BBB000040F22810C2F20000FEF7C6BF2D
:1055D000FEE70000FEF72AFCFFF7CAFBFFF72EFFED
:1055E000FFF718FC40F22810C2F20000FBF7F8FFAA
:1055F000FCF722F9FCE75FEA400C08BF91F0000FCE
:105600004FEA8C234FEAC12243EA51514FEA1C5022
:1056100018BF00F5F0404FEA300018BF41F00041DC
:105620005FEA6C5C00F02980BCF1FF3F08BF40F0EE
:1056300080407047130C06BF12044FF0100C4FF05F
:10564000000C130E04BF12020CF1080C130F04BF60
:1056500012010CF1040C930F04BF92000CF1020C28
:10566000D30F04BF52000CF1010C11464FF00002A1
:10567000A0F11F00A0EB0C00704711F0004F08BF15
:10568000704731F000413FF4D5AF0B0C06BF090461
:105690004FF0100C4FF0000C0B0E04BF09020CF180
:1056A000080C0B0F04BF09010CF1040C8B0F04BF95
:1056B00089000CF1020CCB0F04BF49000CF1010C66
:1056C000CCF1200322FA03F341EA030102FA0CF2BF
:1056D000A0EB0C0000F10100704723F07F4720F0A1
:1056E0007F4C80EA030000F00040ACEB070303F5B9
:1056F0007C5303F1FF032DE9804909B44FEA1443B9
:1057000024EA03484FEA154B25EA0B4E0FF2042614
:1057100006EB13273E7803FB0667C7F5000707FB78
:1057200006F64FEAD64606F102064FEA543707FB63
:10573000066CCCF1005C4FEA1C472CEA074C0CFBD2
:1057400006F507FB06F404EB15464FEA96164908E2
:105750005FEA320234BF00204FF000404FEAD137F9
:1057600006FB07FC4FEA1C4C0CFB0BF7D21B03FBA0
:105770000CF761EB07010CFB0EF7B0EB074072EB87
:1057800017420CFB08F734BFA2EB0742B2EB07420B
:1057900061EB17414FEA0C444FEA910706FB07FC07
:1057A0004FEA1C4C0CFB0BF7B0EBC74072EB5732C7
:1057B00003FB0CF734BFA2EBC742B2EBC74261EB6D
:1057C00057310CFB0EF7B0EBC70072EB57720CFBB6
:1057D00008F734BFA2EBC702B2EBC70261EB577107
:1057E0004FEA816141EA92114FEA826242EA9012E5
:1057F0004FEA806004EBCC04039F4FEAD13706FBED
:1058000007FC4FEA1C4C0CFB0BF7D21B03FB0CF7FD
:1058100061EB07010CFB0EF7B0EB074072EB174290
:105820000CFB08F734BFA2EB0742B2EB074261EB77
:1058300017414FEA8C5504EB9C244FEA910706FB75
:1058400007FC4FEA1C4C0CFB0BF7B0EBC74072EBAC
:10585000573203FB0CF734BFA2EBC742B2EBC7428F
:1058600061EB57310CFB0EF7B0EBC70072EB5772D0
:105870000CFB08F734BFA2EBC702B2EBC70261EB27
:1058800057714FEA816141EA92114FEA826242EA1E
:1058900090124FEA806015EB4C2544F100044FEA6A
:1058A000D13706FB07FC4FEA1C4C0CFB0BF7D21B55
:1058B00003FB0CF761EB07010CFB0EF7B0EB0740A5
:1058C00072EB17420CFB08F734BFA2EB0742B2EBB6
:1058D000074261EB17414FEA813141EA92414FEAB9
:1058E000823242EA90424FEA80304FEA0C7615EB62
:1058F0001C1544F1000448EA03434EEA0B484FF0FC
:10590000000EB2EB080C71EB030724BF6246394668
:105910004EEB0E0E4FF0000B0018524149414BEB7D
:105920000B0BB2EB080C71EB03077BF1000B24BFF0
:10593000624639464EEB0E0E4FF0000B00185241F6
:1059400049414BEB0B0BB2EB080C71EB03077BF1FE
:10595000000B24BF624639464EEB0E0E51EA020799
:1059600018BF46F0010616EB0E7655F1000254F111
:10597000000103D5BDE88901BDE80088BDE88901C3
:10598000BDE80048B619524141EB0101A3F1010302
:10599000704780807F7E7D7C7B7A7978777676759C
:1059A0007473727171706F6E6E6D6C6C6B6A6A6914
:1059B0006868676666656464636362616160605FAE
:1059C0005F5E5E5D5D5C5C5B5B5A5A595958585727
:1059D000575656555555545453535252525151508F
:1059E00050504F4F4F4E4E4D4D4D4C4C4C4B4B4BE2
:1059F0004A4A4A4949494848484747474746464628
:105A00004545454444444443434343424242424162
:105A100041419C46002B30D477002BD04FEA37070A
:105A20001CB503B44FF010004FF01001BAF1000F95
:105A300006D0BCF1000FDCBF40F0080040F00801C8
:105A40004FF000000FBCBDE810400BF1010BBBF1A3
:105A5000010F08BF5FEA170722BF12F1010211F11F
:105A600001014FF0004143F1000300F0004043EA20
:105A700000007047F9D35708D0E746EA06464FEAD8
:105A8000164613F1400F1FDD13F1200FDFBF164341
:105A90000A46002120335B42BED0C3F1200746EA0C
:105AA00006464FEA164602FA07F746EA070622FAC2
:105AB00003F2C3F1200701FA07F742EA070221FACD
:105AC00003F14FF00003A7E746EA020646EA06465E
:105AD0004FEA164646EA0106BCBF46EA0646360CC1
